{
  "_format": "hh-sol-artifact-1",
  "contractName": "CourseMarketplace",
  "sourceName": "contracts/CourseMarketplace.sol",
  "abi": [
    {
      "inputs": [],
      "stateMutability": "nonpayable",
      "type": "constructor"
    },
    {
      "anonymous": false,
      "inputs": [
        {
          "indexed": false,
          "internalType": "string",
          "name": "courseId",
          "type": "string"
        },
        {
          "indexed": false,
          "internalType": "address",
          "name": "student",
          "type": "address"
        },
        {
          "indexed": false,
          "internalType": "uint256",
          "name": "timestamp",
          "type": "uint256"
        }
      ],
      "name": "CertificateIssued",
      "type": "event"
    },
    {
      "anonymous": false,
      "inputs": [
        {
          "indexed": false,
          "internalType": "string",
          "name": "courseId",
          "type": "string"
        },
        {
          "indexed": false,
          "internalType": "uint256",
          "name": "price",
          "type": "uint256"
        },
        {
          "indexed": false,
          "internalType": "address",
          "name": "instructor",
          "type": "address"
        }
      ],
      "name": "CourseCreated",
      "type": "event"
    },
    {
      "anonymous": false,
      "inputs": [
        {
          "indexed": false,
          "internalType": "string",
          "name": "courseId",
          "type": "string"
        },
        {
          "indexed": false,
          "internalType": "address",
          "name": "student",
          "type": "address"
        }
      ],
      "name": "CoursePurchased",
      "type": "event"
    },
    {
      "inputs": [
        {
          "internalType": "string",
          "name": "",
          "type": "string"
        }
      ],
      "name": "courses",
      "outputs": [
        {
          "internalType": "string",
          "name": "courseId",
          "type": "string"
        },
        {
          "internalType": "uint256",
          "name": "price",
          "type": "uint256"
        },
        {
          "internalType": "address",
          "name": "instructor",
          "type": "address"
        },
        {
          "internalType": "bool",
          "name": "isActive",
          "type": "bool"
        }
      ],
      "stateMutability": "view",
      "type": "function"
    },
    {
      "inputs": [
        {
          "internalType": "string",
          "name": "_courseId",
          "type": "string"
        },
        {
          "internalType": "uint256",
          "name": "_price",
          "type": "uint256"
        }
      ],
      "name": "createCourse",
      "outputs": [],
      "stateMutability": "nonpayable",
      "type": "function"
    },
    {
      "inputs": [
        {
          "internalType": "address",
          "name": "_student",
          "type": "address"
        }
      ],
      "name": "getEnrolledCourses",
      "outputs": [
        {
          "internalType": "string[]",
          "name": "",
          "type": "string[]"
        }
      ],
      "stateMutability": "view",
      "type": "function"
    },
    {
      "inputs": [
        {
          "internalType": "address",
          "name": "",
          "type": "address"
        },
        {
          "internalType": "string",
          "name": "",
          "type": "string"
        }
      ],
      "name": "isEnrolled",
      "outputs": [
        {
          "internalType": "bool",
          "name": "",
          "type": "bool"
        }
      ],
      "stateMutability": "view",
      "type": "function"
    },
    {
      "inputs": [
        {
          "internalType": "string",
          "name": "_courseId",
          "type": "string"
        },
        {
          "internalType": "address",
          "name": "_student",
          "type": "address"
        },
        {
          "internalType": "string",
          "name": "_metadataUrl",
          "type": "string"
        }
      ],
      "name": "issueCertificate",
      "outputs": [],
      "stateMutability": "nonpayable",
      "type": "function"
    },
    {
      "inputs": [],
      "name": "owner",
      "outputs": [
        {
          "internalType": "address",
          "name": "",
          "type": "address"
        }
      ],
      "stateMutability": "view",
      "type": "function"
    },
    {
      "inputs": [
        {
          "internalType": "string",
          "name": "_courseId",
          "type": "string"
        }
      ],
      "name": "purchaseCourse",
      "outputs": [],
      "stateMutability": "payable",
      "type": "function"
    },
    {
      "inputs": [
        {
          "internalType": "address",
          "name": "",
          "type": "address"
        },
        {
          "internalType": "uint256",
          "name": "",
          "type": "uint256"
        }
      ],
      "name": "studentCertificates",
      "outputs": [
        {
          "internalType": "string",
          "name": "courseId",
          "type": "string"
        },
        {
          "internalType": "address",
          "name": "student",
          "type": "address"
        },
        {
          "internalType": "uint256",
          "name": "timestamp",
          "type": "uint256"
        },
        {
          "internalType": "string",
          "name": "metadataUrl",
          "type": "string"
        }
      ],
      "stateMutability": "view",
      "type": "function"
    },
    {
      "inputs": [
        {
          "internalType": "address",
          "name": "",
          "type": "address"
        },
        {
          "internalType": "uint256",
          "name": "",
          "type": "uint256"
        }
      ],
      "name": "studentEnrollments",
      "outputs": [
        {
          "internalType": "string",
          "name": "",
          "type": "string"
        }
      ],
      "stateMutability": "view",
      "type": "function"
    }
  ],
  "bytecode": "0x608060405234801561001057600080fd5b50336000806101000a81548173ffffffffffffffffffffffffffffffffffffffff021916908373ffffffffffffffffffffffffffffffffffffffff160217905550611d8c806100606000396000f3fe6080604052600436106100865760003560e01c80636e6a0d8b116100595780636e6a0d8b1461016157806371b215721461019e5780638da5cb5b146101c7578063a1db0e27146101f2578063c3934f0e1461021b57610086565b80630993031e1461008b5780630a4ad7fe146100c85780635d1c6dce1461010557806367589b6f14610145575b600080fd5b34801561009757600080fd5b506100b260048036038101906100ad9190611079565b61025b565b6040516100bf91906111f8565b60405180910390f35b3480156100d457600080fd5b506100ef60048036038101906100ea9190611250565b610373565b6040516100fc91906112da565b60405180910390f35b34801561011157600080fd5b5061012c60048036038101906101279190611431565b61042c565b60405161013c94939291906114b3565b60405180910390f35b61015f600480360381019061015a9190611431565b610527565b005b34801561016d57600080fd5b50610188600480360381019061018391906114ff565b610903565b604051610195919061155b565b60405180910390f35b3480156101aa57600080fd5b506101c560048036038101906101c09190611576565b610948565b005b3480156101d357600080fd5b506101dc610d01565b6040516101e99190611601565b60405180910390f35b3480156101fe57600080fd5b506102196004803603810190610214919061161c565b610d25565b005b34801561022757600080fd5b50610242600480360381019061023d9190611250565b610e8a565b6040516102529493929190611678565b60405180910390f35b6060600260008373ffffffffffffffffffffffffffffffffffffffff1673ffffffffffffffffffffffffffffffffffffffff168152602001908152602001600020805480602002602001604051908101604052809291908181526020016000905b828210156103685783829060005260206000200180546102db906116fa565b80601f0160208091040260200160405190810160405280929190818152602001828054610307906116fa565b80156103545780601f1061032957610100808354040283529160200191610354565b820191906000526020600020905b81548152906001019060200180831161033757829003601f168201915b5050505050815260200190600101906102bc565b505050509050919050565b6002602052816000526040600020818154811061038f57600080fd5b906000526020600020016000915091505080546103ab906116fa565b80601f01602080910402602001604051908101604052809291908181526020018280546103d7906116fa565b80156104245780601f106103f957610100808354040283529160200191610424565b820191906000526020600020905b81548152906001019060200180831161040757829003601f168201915b505050505081565b600181805160208101820180518482526020830160208501208183528095505050505050600091509050806000018054610465906116fa565b80601f0160208091040260200160405190810160405280929190818152602001828054610491906116fa565b80156104de5780601f106104b3576101008083540402835291602001916104de565b820191906000526020600020905b8154815290600101906020018083116104c157829003601f168201915b5050505050908060010154908060020160009054906101000a900473ffffffffffffffffffffffffffffffffffffffff16908060020160149054906101000a900460ff16905084565b60006001826040516105399190611767565b9081526020016040518091039020604051806080016040529081600082018054610562906116fa565b80601f016020809104026020016040519081016040528092919081815260200182805461058e906116fa565b80156105db5780601f106105b0576101008083540402835291602001916105db565b820191906000526020600020905b8154815290600101906020018083116105be57829003601f168201915b50505050508152602001600182015481526020016002820160009054906101000a900473ffffffffffffffffffffffffffffffffffffffff1673ffffffffffffffffffffffffffffffffffffffff1673ffffffffffffffffffffffffffffffffffffffff1681526020016002820160149054906101000a900460ff161515151581525050905080606001516106a5576040517f08c379a000000000000000000000000000000000000000000000000000000000815260040161069c906117ca565b60405180910390fd5b80602001513410156106ec576040517f08c379a00000000000000000000000000000000000000000000000000000000081526004016106e390611836565b60405180910390fd5b600360003373ffffffffffffffffffffffffffffffffffffffff1673ffffffffffffffffffffffffffffffffffffffff168152602001908152602001600020826040516107399190611767565b908152602001604051809103902060009054906101000a900460ff1615610795576040517f08c379a000000000000000000000000000000000000000000000000000000000815260040161078c906118a2565b60405180910390fd5b806040015173ffffffffffffffffffffffffffffffffffffffff166108fc349081150290604051600060405180830381858888f193505050501580156107df573d6000803e3d6000fd5b50600260003373ffffffffffffffffffffffffffffffffffffffff1673ffffffffffffffffffffffffffffffffffffffff168152602001908152602001600020829080600181540180825580915050600190039060005260206000200160009091909190915090816108519190611a6e565b506001600360003373ffffffffffffffffffffffffffffffffffffffff1673ffffffffffffffffffffffffffffffffffffffff168152602001908152602001600020836040516108a19190611767565b908152602001604051809103902060006101000a81548160ff0219169083151502179055507ff3b7d2b56b5220b3d9a41160be1e2df3e57de937a5fbe0b818fe87a2ee8576f582336040516108f7929190611b40565b60405180910390a15050565b6003602052816000526040600020818051602081018201805184825260208301602085012081835280955050505050506000915091509054906101000a900460ff1681565b600060018460405161095a9190611767565b9081526020016040518091039020604051806080016040529081600082018054610983906116fa565b80601f01602080910402602001604051908101604052809291908181526020018280546109af906116fa565b80156109fc5780601f106109d1576101008083540402835291602001916109fc565b820191906000526020600020905b8154815290600101906020018083116109df57829003601f168201915b50505050508152602001600182015481526020016002820160009054906101000a900473ffffffffffffffffffffffffffffffffffffffff1673ffffffffffffffffffffffffffffffffffffffff1673ffffffffffffffffffffffffffffffffffffffff1681526020016002820160149054906101000a900460ff1615151515815250509050806040015173ffffffffffffffffffffffffffffffffffffffff163373ffffffffffffffffffffffffffffffffffffffff1614610af4576040517f08c379a0000000000000000000000000000000000000000000000000000000008152600401610aeb90611be2565b60405180910390fd5b600360008473ffffffffffffffffffffffffffffffffffffffff1673ffffffffffffffffffffffffffffffffffffffff16815260200190815260200160002084604051610b419190611767565b908152602001604051809103902060009054906101000a900460ff16610b9c576040517f08c379a0000000000000000000000000000000000000000000000000000000008152600401610b9390611c4e565b60405180910390fd5b600060405180608001604052808681526020018573ffffffffffffffffffffffffffffffffffffffff168152602001428152602001848152509050600460008573ffffffffffffffffffffffffffffffffffffffff1673ffffffffffffffffffffffffffffffffffffffff1681526020019081526020016000208190806001815401808255809150506001900390600052602060002090600402016000909190919091506000820151816000019081610c559190611a6e565b5060208201518160010160006101000a81548173ffffffffffffffffffffffffffffffffffffffff021916908373ffffffffffffffffffffffffffffffffffffffff160217905550604082015181600201556060820151816003019081610cbc9190611a6e565b5050507f1251b43dc8d03f329af062ae5f5c09cbdd6df52152ce8b1c5878cc2cb00eb23c858542604051610cf293929190611c6e565b60405180910390a15050505050565b60008054906101000a900473ffffffffffffffffffffffffffffffffffffffff1681565b6000825111610d69576040517f08c379a0000000000000000000000000000000000000000000000000000000008152600401610d6090611cf8565b60405180910390fd5b60405180608001604052808381526020018281526020013373ffffffffffffffffffffffffffffffffffffffff16815260200160011515815250600183604051610db39190611767565b90815260200160405180910390206000820151816000019081610dd69190611a6e565b506020820151816001015560408201518160020160006101000a81548173ffffffffffffffffffffffffffffffffffffffff021916908373ffffffffffffffffffffffffffffffffffffffff16021790555060608201518160020160146101000a81548160ff0219169083151502179055509050507f678dbcf695265a55ba9f1ff82022aad3e2ca3fa41df938f95317386005e33388828233604051610e7e93929190611d18565b60405180910390a15050565b60046020528160005260406000208181548110610ea657600080fd5b906000526020600020906004020160009150915050806000018054610eca906116fa565b80601f0160208091040260200160405190810160405280929190818152602001828054610ef6906116fa565b8015610f435780601f10610f1857610100808354040283529160200191610f43565b820191906000526020600020905b815481529060010190602001808311610f2657829003601f168201915b5050505050908060010160009054906101000a900473ffffffffffffffffffffffffffffffffffffffff1690806002015490806003018054610f84906116fa565b80601f0160208091040260200160405190810160405280929190818152602001828054610fb0906116fa565b8015610ffd5780601f10610fd257610100808354040283529160200191610ffd565b820191906000526020600020905b815481529060010190602001808311610fe057829003601f168201915b5050505050905084565b6000604051905090565b600080fd5b600080fd5b600073ffffffffffffffffffffffffffffffffffffffff82169050919050565b60006110468261101b565b9050919050565b6110568161103b565b811461106157600080fd5b50565b6000813590506110738161104d565b92915050565b60006020828403121561108f5761108e611011565b5b600061109d84828501611064565b91505092915050565b600081519050919050565b600082825260208201905092915050565b6000819050602082019050919050565b600081519050919050565b600082825260208201905092915050565b60005b8381101561110c5780820151818401526020810190506110f1565b60008484015250505050565b6000601f19601f8301169050919050565b6000611134826110d2565b61113e81856110dd565b935061114e8185602086016110ee565b61115781611118565b840191505092915050565b600061116e8383611129565b905092915050565b6000602082019050919050565b600061118e826110a6565b61119881856110b1565b9350836020820285016111aa856110c2565b8060005b858110156111e657848403895281516111c78582611162565b94506111d283611176565b925060208a019950506001810190506111ae565b50829750879550505050505092915050565b600060208201905081810360008301526112128184611183565b905092915050565b6000819050919050565b61122d8161121a565b811461123857600080fd5b50565b60008135905061124a81611224565b92915050565b6000806040838503121561126757611266611011565b5b600061127585828601611064565b92505060206112868582860161123b565b9150509250929050565b600082825260208201905092915050565b60006112ac826110d2565b6112b68185611290565b93506112c68185602086016110ee565b6112cf81611118565b840191505092915050565b600060208201905081810360008301526112f481846112a1565b905092915050565b600080fd5b600080fd5b7f4e487b7100000000000000000000000000000000000000000000000000000000600052604160045260246000fd5b61133e82611118565b810181811067ffffffffffffffff8211171561135d5761135c611306565b5b80604052505050565b6000611370611007565b905061137c8282611335565b919050565b600067ffffffffffffffff82111561139c5761139b611306565b5b6113a582611118565b9050602081019050919050565b82818337600083830152505050565b60006113d46113cf84611381565b611366565b9050828152602081018484840111156113f0576113ef611301565b5b6113fb8482856113b2565b509392505050565b600082601f830112611418576114176112fc565b5b81356114288482602086016113c1565b91505092915050565b60006020828403121561144757611446611011565b5b600082013567ffffffffffffffff81111561146557611464611016565b5b61147184828501611403565b91505092915050565b6114838161121a565b82525050565b6114928161103b565b82525050565b60008115159050919050565b6114ad81611498565b82525050565b600060808201905081810360008301526114cd81876112a1565b90506114dc602083018661147a565b6114e96040830185611489565b6114f660608301846114a4565b95945050505050565b6000806040838503121561151657611515611011565b5b600061152485828601611064565b925050602083013567ffffffffffffffff81111561154557611544611016565b5b61155185828601611403565b9150509250929050565b600060208201905061157060008301846114a4565b92915050565b60008060006060848603121561158f5761158e611011565b5b600084013567ffffffffffffffff8111156115ad576115ac611016565b5b6115b986828701611403565b93505060206115ca86828701611064565b925050604084013567ffffffffffffffff8111156115eb576115ea611016565b5b6115f786828701611403565b9150509250925092565b60006020820190506116166000830184611489565b92915050565b6000806040838503121561163357611632611011565b5b600083013567ffffffffffffffff81111561165157611650611016565b5b61165d85828601611403565b925050602061166e8582860161123b565b9150509250929050565b6000608082019050818103600083015261169281876112a1565b90506116a16020830186611489565b6116ae604083018561147a565b81810360608301526116c081846112a1565b905095945050505050565b7f4e487b7100000000000000000000000000000000000000000000000000000000600052602260045260246000fd5b6000600282049050600182168061171257607f821691505b602082108103611725576117246116cb565b5b50919050565b600081905092915050565b6000611741826110d2565b61174b818561172b565b935061175b8185602086016110ee565b80840191505092915050565b60006117738284611736565b915081905092915050565b7f436f75727365206973206e6f7420616374697665000000000000000000000000600082015250565b60006117b4601483611290565b91506117bf8261177e565b602082019050919050565b600060208201905081810360008301526117e3816117a7565b9050919050565b7f496e73756666696369656e74207061796d656e74000000000000000000000000600082015250565b6000611820601483611290565b915061182b826117ea565b602082019050919050565b6000602082019050818103600083015261184f81611813565b9050919050565b7f416c726561647920656e726f6c6c656400000000000000000000000000000000600082015250565b600061188c601083611290565b915061189782611856565b602082019050919050565b600060208201905081810360008301526118bb8161187f565b9050919050565b60008190508160005260206000209050919050565b60006020601f8301049050919050565b600082821b905092915050565b6000600883026119247fffffffffffffffffffffffffffffffffffffffffffffffffffffffffffffffff826118e7565b61192e86836118e7565b95508019841693508086168417925050509392505050565b6000819050919050565b600061196b6119666119618461121a565b611946565b61121a565b9050919050565b6000819050919050565b61198583611950565b61199961199182611972565b8484546118f4565b825550505050565b600090565b6119ae6119a1565b6119b981848461197c565b505050565b5b818110156119dd576119d26000826119a6565b6001810190506119bf565b5050565b601f821115611a22576119f3816118c2565b6119fc846118d7565b81016020851015611a0b578190505b611a1f611a17856118d7565b8301826119be565b50505b505050565b600082821c905092915050565b6000611a4560001984600802611a27565b1980831691505092915050565b6000611a5e8383611a34565b9150826002028217905092915050565b611a77826110d2565b67ffffffffffffffff811115611a9057611a8f611306565b5b611a9a82546116fa565b611aa58282856119e1565b600060209050601f831160018114611ad85760008415611ac6578287015190505b611ad08582611a52565b865550611b38565b601f198416611ae6866118c2565b60005b82811015611b0e57848901518255600182019150602085019450602081019050611ae9565b86831015611b2b5784890151611b27601f891682611a34565b8355505b6001600288020188555050505b505050505050565b60006040820190508181036000830152611b5a81856112a1565b9050611b696020830184611489565b9392505050565b7f4f6e6c7920696e7374727563746f722063616e2069737375652063657274696660008201527f6963617465000000000000000000000000000000000000000000000000000000602082015250565b6000611bcc602583611290565b9150611bd782611b70565b604082019050919050565b60006020820190508181036000830152611bfb81611bbf565b9050919050565b7f53747564656e74206e6f7420656e726f6c6c6564000000000000000000000000600082015250565b6000611c38601483611290565b9150611c4382611c02565b602082019050919050565b60006020820190508181036000830152611c6781611c2b565b9050919050565b60006060820190508181036000830152611c8881866112a1565b9050611c976020830185611489565b611ca4604083018461147a565b949350505050565b7f496e76616c696420636f75727365204944000000000000000000000000000000600082015250565b6000611ce2601183611290565b9150611ced82611cac565b602082019050919050565b60006020820190508181036000830152611d1181611cd5565b9050919050565b60006060820190508181036000830152611d3281866112a1565b9050611d41602083018561147a565b611d4e6040830184611489565b94935050505056fea264697066735822122088a56c9bfb123e6b6c7adf6ffc5c289472a8685bf03d5a51979321a7d965262064736f6c63430008130033",
  "linkReferences": {},
  "deployedLinkReferences": {}
}